{
  "transactions": [
    {
      "hash": "0x02ac1447e5f6f5d5aaae142529b1f58505912dcf018cfdfa026ce3e6817e05d4",
      "transactionType": "CREATE",
      "contractName": "MockPriceFeed",
      "contractAddress": "0x0e615490cd58a42ed231b8d079e99f49b23d19a5",
      "function": null,
      "arguments": [
        "200000000000",
        "8"
      ],
      "transaction": {
        "from": "0x7f866c9f0857ab2f09b37f1d39a7fe0f47b82664",
        "gas": "0x3e756",
        "value": "0x0",
        "input": "0x608034606c57601f6101e038819003918201601f19168301916001600160401b038311848410176070578084926040948552833981010312606c57602081519101519060ff8216809203606c575f5560ff1960015416176001554260025560405161015b90816100858239f35b5f80fd5b634e487b7160e01b5f52604160045260245ffdfe6080806040526004361015610012575f80fd5b5f3560e01c9081631ecc7d881461010c578163313ce567146100ef575080637519ab50146100d2578063a035b1fe146100b6578063f7a308061461009a5763feaf968c1461005e575f80fd5b34610096575f3660031901126100965760a05f5460025460405191600183526020830152426040830152606082015260016080820152f35b5f80fd5b34610096576020366003190112610096576004355f5542600255005b34610096575f3660031901126100965760205f54604051908152f35b34610096575f366003190112610096576020600254604051908152f35b34610096575f3660031901126100965760209060ff600154168152f35b346100965760203660031901126100965760043560025500fea264697066735822122099d030802d7531791e461a9b0dfe6ffcbbde5101923924da955769e35d22d70064736f6c634300081b00330000000000000000000000000000000000000000000000000000002e90edd0000000000000000000000000000000000000000000000000000000000000000008",
        "nonce": "0x4a",
        "chainId": "0x3909"
      },
      "additionalContracts": [],
      "isFixedGasLimit": false
    },
    {
      "hash": "0x89c2f58825c5a439f6e8c5b5219d3427a1c605fdaf11d83d80033a1380a235de",
      "transactionType": "CALL",
      "contractName": null,
      "contractAddress": "0xc3a9d70a76df1459ac259d460cd6781e86620a45",
      "function": "setPriceFeed(address)",
      "arguments": [
        "0x0e615490CD58a42ed231B8D079e99F49b23D19A5"
      ],
      "transaction": {
        "from": "0x7f866c9f0857ab2f09b37f1d39a7fe0f47b82664",
        "to": "0xc3a9d70a76df1459ac259d460cd6781e86620a45",
        "gas": "0xa2aa",
        "value": "0x0",
        "input": "0x724e78da0000000000000000000000000e615490cd58a42ed231b8d079e99f49b23d19a5",
        "nonce": "0x4b",
        "chainId": "0x3909"
      },
      "additionalContracts": [],
      "isFixedGasLimit": false
    }
  ],
  "receipts": [
    {
      "status": "0x1",
      "cumulativeGasUsed": "0x317c8",
      "logs": [],
      "logsBloom": "0x00000000000000000000000000000000000000000000000000000000000000000000000000000000000000000000000000000000000000000000000000000000000000000000000000000000000000000000000000000000000000000000000000000000000000000000000000000000000000000000000000000000000000000000000000000000000000000000000000000000000000000000000000000000000000000000000000000000000000000000000000000000000000000000000000000000000000000000000000000000000000000000000000000000000000000000000000000000000000000000000000000000000000000000000000000000",
      "type": "0x2",
      "transactionHash": "0x02ac1447e5f6f5d5aaae142529b1f58505912dcf018cfdfa026ce3e6817e05d4",
      "transactionIndex": "0x0",
      "blockHash": "0x5534ac7ecfd19f8567539bdc1c69d97a0ab8153cc15c7e99559f398a8b3642ae",
      "blockNumber": "0x4a1ec",
      "gasUsed": "0x317c8",
      "effectiveGasPrice": "0x3b9aca01",
      "from": "0x7f866c9f0857ab2f09b37f1d39a7fe0f47b82664",
      "to": null,
      "contractAddress": "0x0e615490cd58a42ed231b8d079e99f49b23d19a5"
    },
    {
      "status": "0x1",
      "cumulativeGasUsed": "0x7a42",
      "logs": [
        {
          "address": "0xc3a9d70a76df1459ac259d460cd6781e86620a45",
          "topics": [
            "0xe5b20b8497e4f3e2435ef9c20e2e26b47497ee13745ce1c681ad6640653119e6",
            "0x0000000000000000000000000e615490cd58a42ed231b8d079e99f49b23d19a5"
          ],
          "data": "0x",
          "blockHash": "0x11bfd73ac34c3277ad0347c16b3b3aa660a04200643f0ba8112844e6a8632b5b",
          "blockNumber": "0x4a1ed",
          "blockTimestamp": "0x68a939aa",
          "transactionHash": "0x89c2f58825c5a439f6e8c5b5219d3427a1c605fdaf11d83d80033a1380a235de",
          "transactionIndex": "0x0",
          "logIndex": "0x0",
          "removed": false
        }
      ],
      "logsBloom": "0x00000000000000000000000000000000000000000000000004000004000000000000000000000000000000000000000000000000000000000000000000000000000000000000000000000000000000000000000000000000000000000000000000000000000000000000000000000000000000000000000000000000000000000000000000000000000000000000000000000000000000000000000000000000000000000000000800000000002000000000000000000000000000000000000400000000000000000002020000000000000020000000000000000000000000000000000000000000200000000000000000000000000000000000000000000000",
      "type": "0x2",
      "transactionHash": "0x89c2f58825c5a439f6e8c5b5219d3427a1c605fdaf11d83d80033a1380a235de",
      "transactionIndex": "0x0",
      "blockHash": "0x11bfd73ac34c3277ad0347c16b3b3aa660a04200643f0ba8112844e6a8632b5b",
      "blockNumber": "0x4a1ed",
      "gasUsed": "0x7a42",
      "effectiveGasPrice": "0x3b9aca01",
      "from": "0x7f866c9f0857ab2f09b37f1d39a7fe0f47b82664",
      "to": "0xc3a9d70a76df1459ac259d460cd6781e86620a45",
      "contractAddress": null
    }
  ],
  "libraries": [],
  "pending": [],
  "returns": {},
  "timestamp": 1755920812,
  "chain": 14601,
  "commit": "a6e014f"
}