{
  "transactions": [
    {
      "hash": "0x35c271fe8ffd377bcd2fdc2d3b2a623b5838707cd0ac00f812f449e6ad6e5e57",
      "transactionType": "CREATE",
      "contractName": "MockPriceFeed",
      "contractAddress": "0xc9d9e7c979ae35f706a78e115f94053dcd54267d",
      "function": null,
      "arguments": [
        "200000000000",
        "8"
      ],
      "transaction": {
        "from": "0x7f866c9f0857ab2f09b37f1d39a7fe0f47b82664",
        "gas": "0x3e756",
        "value": "0x0",
        "input": "0x608034606c57601f6101e038819003918201601f19168301916001600160401b038311848410176070578084926040948552833981010312606c57602081519101519060ff8216809203606c575f5560ff1960015416176001554260025560405161015b90816100858239f35b5f80fd5b634e487b7160e01b5f52604160045260245ffdfe6080806040526004361015610012575f80fd5b5f3560e01c9081631ecc7d881461010c578163313ce567146100ef575080637519ab50146100d2578063a035b1fe146100b6578063f7a308061461009a5763feaf968c1461005e575f80fd5b34610096575f3660031901126100965760a05f5460025460405191600183526020830152426040830152606082015260016080820152f35b5f80fd5b34610096576020366003190112610096576004355f5542600255005b34610096575f3660031901126100965760205f54604051908152f35b34610096575f366003190112610096576020600254604051908152f35b34610096575f3660031901126100965760209060ff600154168152f35b346100965760203660031901126100965760043560025500fea264697066735822122099d030802d7531791e461a9b0dfe6ffcbbde5101923924da955769e35d22d70064736f6c634300081b00330000000000000000000000000000000000000000000000000000002e90edd0000000000000000000000000000000000000000000000000000000000000000008",
        "nonce": "0x24",
        "chainId": "0x3909"
      },
      "additionalContracts": [],
      "isFixedGasLimit": false
    },
    {
      "hash": "0x1f7aba5000a475bdca54ed7a79bd88df32f1cd11f84e493c63342df20511e61f",
      "transactionType": "CALL",
      "contractName": null,
      "contractAddress": "0xb0ae4cdfb5e729a64aae841e50480cc590e90178",
      "function": "setPriceFeed(address)",
      "arguments": [
        "0xC9d9E7C979ae35f706A78e115f94053DCd54267D"
      ],
      "transaction": {
        "from": "0x7f866c9f0857ab2f09b37f1d39a7fe0f47b82664",
        "to": "0xb0ae4cdfb5e729a64aae841e50480cc590e90178",
        "gas": "0xa2aa",
        "value": "0x0",
        "input": "0x724e78da000000000000000000000000c9d9e7c979ae35f706a78e115f94053dcd54267d",
        "nonce": "0x25",
        "chainId": "0x3909"
      },
      "additionalContracts": [],
      "isFixedGasLimit": false
    }
  ],
  "receipts": [
    {
      "status": "0x1",
      "cumulativeGasUsed": "0x317c8",
      "logs": [],
      "logsBloom": "0x00000000000000000000000000000000000000000000000000000000000000000000000000000000000000000000000000000000000000000000000000000000000000000000000000000000000000000000000000000000000000000000000000000000000000000000000000000000000000000000000000000000000000000000000000000000000000000000000000000000000000000000000000000000000000000000000000000000000000000000000000000000000000000000000000000000000000000000000000000000000000000000000000000000000000000000000000000000000000000000000000000000000000000000000000000000",
      "type": "0x2",
      "transactionHash": "0x35c271fe8ffd377bcd2fdc2d3b2a623b5838707cd0ac00f812f449e6ad6e5e57",
      "transactionIndex": "0x0",
      "blockHash": "0xb2d239c05b9fa2c07fbcdf28e7ce0815156c9a323bbe325c2ec0230ae5b514db",
      "blockNumber": "0xbf52",
      "gasUsed": "0x317c8",
      "effectiveGasPrice": "0x3b9aca01",
      "from": "0x7f866c9f0857ab2f09b37f1d39a7fe0f47b82664",
      "to": null,
      "contractAddress": "0xc9d9e7c979ae35f706a78e115f94053dcd54267d"
    },
    {
      "status": "0x1",
      "cumulativeGasUsed": "0x7a42",
      "logs": [
        {
          "address": "0xb0ae4cdfb5e729a64aae841e50480cc590e90178",
          "topics": [
            "0xe5b20b8497e4f3e2435ef9c20e2e26b47497ee13745ce1c681ad6640653119e6",
            "0x000000000000000000000000c9d9e7c979ae35f706a78e115f94053dcd54267d"
          ],
          "data": "0x",
          "blockHash": "0x8a0d4d16c6c0dead5a2e36dff89c15a4211fcd289cf84c058c9321e99981fa9f",
          "blockNumber": "0xbf53",
          "blockTimestamp": "0x689c5b40",
          "transactionHash": "0x1f7aba5000a475bdca54ed7a79bd88df32f1cd11f84e493c63342df20511e61f",
          "transactionIndex": "0x0",
          "logIndex": "0x0",
          "removed": false
        }
      ],
      "logsBloom": "0x00000000000000000000000000000000000000000000000004000004000000000000000000000000000000000000000000000000000000000002000000000000000000000000000000000000000000000000000000000000000000000000000000000000000000000000000001000000000000000000000000000000000000000000000000000000000000000000000000000000000000000000000000000000000000000000000000000000000000000800000000000000000000000000000000000000000000000000020000000000000000000000000000000000000000000002000000000004000000000004000000000000000000000000000000000000",
      "type": "0x2",
      "transactionHash": "0x1f7aba5000a475bdca54ed7a79bd88df32f1cd11f84e493c63342df20511e61f",
      "transactionIndex": "0x0",
      "blockHash": "0x8a0d4d16c6c0dead5a2e36dff89c15a4211fcd289cf84c058c9321e99981fa9f",
      "blockNumber": "0xbf53",
      "gasUsed": "0x7a42",
      "effectiveGasPrice": "0x3b9aca01",
      "from": "0x7f866c9f0857ab2f09b37f1d39a7fe0f47b82664",
      "to": "0xb0ae4cdfb5e729a64aae841e50480cc590e90178",
      "contractAddress": null
    }
  ],
  "libraries": [],
  "pending": [],
  "returns": {},
  "timestamp": 1755077441,
  "chain": 14601,
  "commit": "047245a"
}