{
  "transactions": [
    {
      "hash": "0x11a205576bcea89bb20e935a4cef4a2a965266febf1cf2ef036b4f73cbc4315d",
      "transactionType": "CREATE",
      "contractName": "MockPriceFeed",
      "contractAddress": "0x6b55c445547f7e5a4bb82c0c4a743c8126c9c6ec",
      "function": null,
      "arguments": [
        "200000000000",
        "8"
      ],
      "transaction": {
        "from": "0x7f866c9f0857ab2f09b37f1d39a7fe0f47b82664",
        "gas": "0x3e756",
        "value": "0x0",
        "input": "0x608034606c57601f6101e038819003918201601f19168301916001600160401b038311848410176070578084926040948552833981010312606c57602081519101519060ff8216809203606c575f5560ff1960015416176001554260025560405161015b90816100858239f35b5f80fd5b634e487b7160e01b5f52604160045260245ffdfe6080806040526004361015610012575f80fd5b5f3560e01c9081631ecc7d881461010c578163313ce567146100ef575080637519ab50146100d2578063a035b1fe146100b6578063f7a308061461009a5763feaf968c1461005e575f80fd5b34610096575f3660031901126100965760a05f5460025460405191600183526020830152426040830152606082015260016080820152f35b5f80fd5b34610096576020366003190112610096576004355f5542600255005b34610096575f3660031901126100965760205f54604051908152f35b34610096575f366003190112610096576020600254604051908152f35b34610096575f3660031901126100965760209060ff600154168152f35b346100965760203660031901126100965760043560025500fea264697066735822122099d030802d7531791e461a9b0dfe6ffcbbde5101923924da955769e35d22d70064736f6c634300081b00330000000000000000000000000000000000000000000000000000002e90edd0000000000000000000000000000000000000000000000000000000000000000008",
        "nonce": "0x3e",
        "chainId": "0x3909"
      },
      "additionalContracts": [],
      "isFixedGasLimit": false
    },
    {
      "hash": "0x4341222bb2e844005b5cda67638e7e064e0adbbf0c787eb518603f641645631a",
      "transactionType": "CALL",
      "contractName": null,
      "contractAddress": "0x17b1530c8088b1bd34d8b64f368ff551c093bf32",
      "function": "setPriceFeed(address)",
      "arguments": [
        "0x6B55C445547f7e5a4BB82c0c4a743c8126C9c6ec"
      ],
      "transaction": {
        "from": "0x7f866c9f0857ab2f09b37f1d39a7fe0f47b82664",
        "to": "0x17b1530c8088b1bd34d8b64f368ff551c093bf32",
        "gas": "0xa2aa",
        "value": "0x0",
        "input": "0x724e78da0000000000000000000000006b55c445547f7e5a4bb82c0c4a743c8126c9c6ec",
        "nonce": "0x3f",
        "chainId": "0x3909"
      },
      "additionalContracts": [],
      "isFixedGasLimit": false
    }
  ],
  "receipts": [
    {
      "status": "0x1",
      "cumulativeGasUsed": "0x317c8",
      "logs": [],
      "logsBloom": "0x00000000000000000000000000000000000000000000000000000000000000000000000000000000000000000000000000000000000000000000000000000000000000000000000000000000000000000000000000000000000000000000000000000000000000000000000000000000000000000000000000000000000000000000000000000000000000000000000000000000000000000000000000000000000000000000000000000000000000000000000000000000000000000000000000000000000000000000000000000000000000000000000000000000000000000000000000000000000000000000000000000000000000000000000000000000",
      "type": "0x2",
      "transactionHash": "0x11a205576bcea89bb20e935a4cef4a2a965266febf1cf2ef036b4f73cbc4315d",
      "transactionIndex": "0x0",
      "blockHash": "0x9893a39b3a22288759a485a7b8ef4884c8bfdcf87c044de46a6b36fee5670000",
      "blockNumber": "0x4a09a",
      "gasUsed": "0x317c8",
      "effectiveGasPrice": "0x3b9aca01",
      "from": "0x7f866c9f0857ab2f09b37f1d39a7fe0f47b82664",
      "to": null,
      "contractAddress": "0x6b55c445547f7e5a4bb82c0c4a743c8126c9c6ec"
    },
    {
      "status": "0x1",
      "cumulativeGasUsed": "0x19243",
      "logs": [
        {
          "address": "0x17b1530c8088b1bd34d8b64f368ff551c093bf32",
          "topics": [
            "0xe5b20b8497e4f3e2435ef9c20e2e26b47497ee13745ce1c681ad6640653119e6",
            "0x0000000000000000000000006b55c445547f7e5a4bb82c0c4a743c8126c9c6ec"
          ],
          "data": "0x",
          "blockHash": "0x06e83f356ef85a179c529bbafee84fd18fa14452ca6d0be1e2a238a0578a3008",
          "blockNumber": "0x4a09b",
          "blockTimestamp": "0x68a9353f",
          "transactionHash": "0x4341222bb2e844005b5cda67638e7e064e0adbbf0c787eb518603f641645631a",
          "transactionIndex": "0x1",
          "logIndex": "0x0",
          "removed": false
        }
      ],
      "logsBloom": "0x00000000000000000000000000080000000000000000000004000004000000000000000000000000000000004000000000000000000000000000000000000000000000000000000000000000000000000000000000000000000000000000000000000000000000000000000000000000000000000000000000000000000000080000000000000000000000000000000000000000000000000000000000040000000000000000000000000000000000000000000000000000000000000000000000000000000000010000020000000000000000000000000000000080000000000000000000000000000000000000000000000000000000000000000000000000",
      "type": "0x2",
      "transactionHash": "0x4341222bb2e844005b5cda67638e7e064e0adbbf0c787eb518603f641645631a",
      "transactionIndex": "0x1",
      "blockHash": "0x06e83f356ef85a179c529bbafee84fd18fa14452ca6d0be1e2a238a0578a3008",
      "blockNumber": "0x4a09b",
      "gasUsed": "0x7a42",
      "effectiveGasPrice": "0x3b9aca01",
      "from": "0x7f866c9f0857ab2f09b37f1d39a7fe0f47b82664",
      "to": "0x17b1530c8088b1bd34d8b64f368ff551c093bf32",
      "contractAddress": null
    }
  ],
  "libraries": [],
  "pending": [],
  "returns": {},
  "timestamp": 1755919680,
  "chain": 14601,
  "commit": "a25cb5b"
}